:100000000EC01BC070C019C018C017C016C015C0E4
:1000100014C013C012C011C065C00FC00EC011249F
:100020001FBECFEDCDBF20E0A0E6B0E001C01D9225
:10003000A038B207E1F73ED2B8C2E2CF8627682FD8
:1000400062956827062E669566956025062E66954C
:1000500060256770082E892F669507946795902D07
:10006000862706946795902586270895C49A089553
:10007000C498089585B7877E806185BF85B7806203
:1000800085BF88950895A89581BD7894F3DFF8948D
:1000900011BC089542EF480F60E770E080E15EC157
:1000A000E7DF8FE080BDC9E7C15011F0B39909C007
:1000B00083EC99E00197F1F700C0000083E4E3DFEF
:1000C000F7CFC49A80E4DFDFC49883E294EF01970E
:1000D000F1F700C00000C49A80E4D5DFC49886E43C
:1000E000D2DFE2CF18951895C19A89EF90E0019779
:1000F000F1F700C0000030D181E880937A001092BF
:100100007B008AE190E0C6DF9FEBE4EDF1E09150E7
:10011000E040F040E1F700C00000B6D1C5D1883121
:10012000924018F0C198BED1BBDF1092700081E000
:100130008093710080E190E0ADDF81E090E00AD231
:10014000811188E0809374001092750010927600FF
:1001500090E080E0FFD1C82F82E090E0FBD1D82F63
:1001600085E090E0F7D1C295CC0FCC0FC07C8F70AA
:10017000C82BD295D073CD2BC09377001092780006
:1001800084E28093790088E190E084DF8FE691E15A
:10019000E1E081509040E040E1F700C0000083E0E2
:1001A00090E0E0D1EC018D2F806880937200C093C5
:1001B000730082E190E06EDF82E68093700081E060
:1001C0008093710080E190E065DFD0937200C0936E
:1001D000730082E190E05EDF00E012E082E6C82E6C
:1001E000DD24D39493E6B92E5FD18237924038F064
:1001F0000F5F0A3028F0C19855D13ADF95CF00E063
:10020000B39964C035DF83ED90E30197F1F700C047
:10021000000080ED97E0B39B1DC028DF8BE792E9DB
:100220000197F1F700C0000023DFC0927000D09268
:10023000710080E190E02EDFE9EFF0E03197F1F717
:1002400000C00000B0927000D092710080E190E098
:1002500021DF36C0E9EFF0E03197F1F700C0000090
:100260000197C9F603DF44E060E670E080E1ACD0BE
:10027000609162007091630076276727762783E09C
:1002800090E081D1F12CE12CD0E0C0E0CE0162D130
:10029000682FC701D3DE7C012196CE30D105B1F79E
:1002A000BC018EE090E06FD1FFE926E881E0F150DB
:1002B00020408040E1F700C00000DADEB39BFECFB3
:1002C000E3EDF0E33197F1F700C00000112329F0CE
:1002D000CDDE113029F4CCDE10E086E4D4DE84CF0C
:1002E00011E0FBCFC098B89A0895B898C09A0895C5
:1002F000C298BA9A0895BA98C29A08950F931F9314
:10030000CF93DF93082FC8E0D0E010E8812F80233F
:1003100011F0EBDF01C0E6DF00C000C00000EBDF42
:1003200000C000C00000E4DF16952197209771F708
:10033000DCDF00C000C00000DEDF00C000C0000045
:10034000C6B3D6DF00C000C000008C2F8170DF91E3
:10035000CF911F910F910895C8DFCDCFEF92FF92FB
:100360001F93CF93DF93CDB7DD27C350CDBF142F9D
:1003700000C000C000006A837B838983B3DF00C0B4
:1003800000C00000B5DF8981880FB8DF6A81E62EE2
:100390007B81F72E160F1E1529F0F70181917F0141
:1003A000ADDFF9CF9FDFA7DF00C000C000009DDFF9
:1003B00000C000C0000080E0CD5FCDBFDF91CF91D5
:1003C0001F91FF90EF900895AF92BF92DF92EF924E
:1003D000FF920F931F93CF93DF93CDB7DD27C350C9
:1003E000CDBFE42E00C000C000006A837B838983F8
:1003F00079DF00C000C000007BDF8981880F816049
:100400007DDF6A81A62E7B81B72EE60EEA1431F1DC
:1004100008E010E080E8D82EF12C6DDF00C000C0AD
:100420000000B099FD2864DF00C000C00000D69431
:10043000015011090115110581F754DF00C000C0FA
:10044000000059DF00C000C0000052DF4EDF00C0D6
:1004500000C00000F501F1925F01D8CF43DF4BDF10
:1004600000C000C0000041DF00C000C0000080E00C
:10047000CD5FCDBFDF91CF911F910F91FF90EF9096
:10048000DF90BF90AF9008958CE087B983E886B97C
:1004900089EF90E00197F1F700C00000369A369995
:1004A000FECF089537980895369A3699FECF84B1D5
:1004B00095B10895B99ABC9A83ED90E30197F1F74D
:1004C00000C00000C39A89EF90E00197F1F700C0E7
:1004D000000096B38BB780628BBFAB9A93FD19C0B7
:1004E000B39BFECFC0E1D0E0CE0134D0682FCE0167
:1004F00040973BD02196C032D105B1F7B7DD9FE3DD
:100500002DE083E0915020408040E1F700C00000E2
:10051000AFDD10E000E0D0E0C0E0CE011BD0682FDE
:10052000C8018CDD8C012196C031D105B1F7892B32
:1005300081F0C9E70BC0D3E099DD80E4A4DD98DD4C
:1005400085E4A1DDD150C1F787E49DDDC15099F765
:1005500091DDCADDE199FECF1FBA8EBBE09A9927E3
:100560008DB30895A8E142E013C0262FE199FECF94
:100570001CBA1FBA8EBB2DBB0FB6F894E29AE19A53
:100580000FBE01960895F1DF272FF0CFA82F862FF9
:10059000E82FE199FECF1FBA05C0EEBBE09AE395C4
:0E05A0000DB20D924150C8F70895F894FFCFA8
:00000001FF
