:100000001DC02AC07AC028C027C026C025C024C071
:1000100023C022C021C020C06FC01EC01DC000016F
:1000200001020305080B0F14191E242B3138404818
:1000300050586169727B848D969EA7AF11241FBEB4
:10004000CFEDCDBF20E0A0E6B0E001C01D92A0380A
:10005000B207E1F780D1E1C2D3CF882324F0982FF3
:1000600092959F7001C098E09BBD882339F08EEF78
:100070008FBD8AE68CBD84E080BF08951CBC10BE95
:10008000089585B7877E806185BF85B7806285BF0B
:1000900088950895A89581BD7894F3DFF89411BCF4
:1000A000089542EF480F60E770E080E102D20895C2
:1000B00080E0D3DF8FE080BDB39B15C0C8E7C49A52
:1000C00080E4E8DFC49883E294EF0197F1F700C081
:1000D0000000C49A80E4DEDFC49886E4DBDFC15010
:1000E00011F0B399ECCF83EC99E00197F1F700C0E0
:1000F000000083E4CFDFF7CF18951895C19A89EFF8
:1001000090E00197F1F700C00000CED1E0E6F0E00A
:1001100081E8828F138E8AE190E0C3DF9FE9E6E8F1
:10012000F1E09150E040F040E1F700C0000034D22F
:1001300043D28831924018F0C1983CD2B9DFE0E652
:10014000F0E0108A81E0818B80E190E0AADF81E01D
:1001500090E038D2811188E0C0E6D0E08C8B1D8A17
:100160001E8A80E090E02ED2082F82E090E02AD212
:10017000182F85E090E026D20295000F000F007C3A
:100180008F70802B13701295107F812B8F8B188EA0
:1001900084E2898F88E190E084DF8FE493EC01971B
:1001A000F1F700C0000083E090E014D28C01906869
:1001B0009A8B0B8B82E190E074DF82E6888B81E082
:1001C000898B80E190E06DDF1A8B0B8B82E190E0F0
:1001D00068DFF12CCCE3D5E00F2EFBE3DF2EF02D12
:1001E000912CA12C0F2EF2E6BF2EF02DEE24E394DD
:1001F0000F2EF3E6CF2EF02DDFD18237924048F05C
:10020000F394F9E0FF1530F4C198D4D180E025DFF4
:100210004FDFF12CB39950C080E01FDF83ED90E3F6
:100220000197F1F700C00000B39B8CC061C0E9EFFB
:10023000F0E03197F1F700C00000019709F46BC0BE
:10024000B39BF5CF55C0C801BDD1BE016827862F2D
:1002500082958627082E869586958025082E869578
:1002600080258770062E672F869507948795702DB9
:1002700068270694879570256827EB010F5F1F4F4D
:100280000E30110501F78EE090E0B5D1FFE926E8C8
:1002900081E0F15020408040E1F700C0000080E0A4
:1002A000DCDEB39BFECFE3EDF0E33197F1F700C066
:1002B0000000D5E0CBE305C0DD23B9F0C150CE315D
:1002C00018F0ED2DEC1B01C0EC2FF0E0E25EFF4FCB
:1002D0008491C3DE87E893E10197F1F700C0000045
:1002E000C1118ACFD150CCE387CF86E4D3DE84CF4F
:1002F000C0E6D0E0B88AE98A80E190E0D2DEE9EF9A
:10030000F0E03197F1F700C00000C88AE98A80E187
:1003100090E0C7DEC8CF8FEFA0DE44E060E670E07B
:1003200080E1EFD0E0E6F0E0628170E0762F6627B2
:100330008381682B83E090E05ED1C92DDA2D00E047
:1003400010E081CF89EF90E00197F1F700C0000045
:100350008FEC97E075CFB99ABC9A83ED90E3019743
:10036000F1F700C000008FEF8DBD80E68CBDC39A11
:1003700089EF90E00197F1F700C0000096B38BB7CA
:1003800080628BBFAB9A93FD1BC0B39BFECFC0E1D5
:10039000D0E0CE0117D1682FCE0140971ED1219613
:1003A000C032D105B1F78FEF58DE9FE32DE083E037
:1003B000915020408040E1F700C0000080E04DDE19
:1003C000C0E0D0E000E010E0C801FCD09E0128278A
:1003D000822F82958227082E869586958025082E65
:1003E000869580258770022E232F86950794879502
:1003F000302D28270694879530252827E9010F5F9F
:100400001F4F0031110501F7CD2BA1F00FC08FEF69
:1004100024DE80E43FDE80E020DE85E43BDEC15068
:10042000B1F787E437DED15011F403C0D8E7C3E059
:10043000EECF27DE63DE28E030E090E8482F492346
:1004400019F0B898C09A02C0C098B89A00C000C00D
:100450000000BA98C29A00C000C00000C298BA9AC0
:1004600096952150310951F7B898C09A00C000C044
:100470000000BA98C29A00C000C0000086B3C298BB
:10048000BA9A00C000C000008170089500C000C08A
:100490000000C098B89A00C000C00000C298BA9A84
:1004A000880F862BC8DF0895B898C09ABA98C29A68
:1004B00008950F931F93CF93DF93EB01142F60E008
:1004C000E5DF0FEF010F112351F010E00F5F1F4F19
:1004D0000C0F1D1F8991AFDFC017D107D9F7C09846
:1004E000B89ABA98C29A00C000C00000B898C09AE2
:1004F00000C000C0000080E0DF91CF911F910F91FC
:1005000008951F93CF93DF93EB01142F61E0BEDFBB
:100510004FEF410F112379F150E04F5F5F4F4C0FC8
:100520005D1F24C0BA98C29A00C000C00000B099F4
:10053000322BC298BA9A00C000C0000026950197DD
:1005400089F7C098B89A00C000C00000BA98C29A53
:1005500000C000C00000C298BA9AB898C09A00C003
:1005600000C0000039934C175D0729F088E090E047
:1005700020E830E0D7CFC098B89ABA98C29A00C0A5
:1005800000C00000B898C09A00C000C0000080E021
:10059000DF91CF911F9108958CE087B983E886B9E8
:1005A00089EF90E00197F1F700C00000369A369984
:1005B000FECF089537980895369A3699FECF84B1C4
:1005C00095B10895E199FECF1FBA8EBBE09A9927A5
:1005D0008DB30895A8E142E013C0262FE199FECF24
:1005E0001CBA1FBA8EBB2DBB0FB6F894E29AE19AE3
:1005F0000FBE01960895F1DF272FF0CFA82F862F89
:10060000E82FE199FECF1FBA05C0EEBBE09AE39553
:0E0610000DB20D924150C8F70895F894FFCF37
:00000001FF
