:100000001DC02AC079C028C027C026C025C024C072
:1000100023C022C021C020C06EC01EC01DC0000170
:1000200001020305080B0F14191E242B3138404818
:1000300050586169727B848D969EA7AF11241FBEB4
:10004000CFEDCDBF20E0A0E6B0E001C01D92A0380A
:10005000B207E1F752D0C6C2D3CF882324F0982F3D
:1000600092959F7001C098E09BBD882339F08EEF78
:100070008FBD8AE68CBD84E080BF08951CBC10BE95
:10008000089585B7877E806185BF85B7806285BF0B
:1000900088950895A89581BD7894F3DFF89411BCF4
:1000A000089542EF480F60E770E080E1E7D10895DE
:1000B0001F93CF93DF93182FC198D8E713C0C12F98
:1000C0008FEFCBDF87E893E10197F1F700C00000E5
:1000D00080E0C3DF85E4DEDFC15091F786E4DADF3C
:1000E000D15019F01111EBCFF9CF49D2CADFDF910E
:1000F000CF911F91089518951895B99ABC9A83EDE0
:1001000090E30197F1F700C000008FEF8DBD80E60E
:100110008CBDC39AE9EFF0E03197F1F700C0000021
:1001200096B38BB780628BBFAB9A93FD1BC0B39B1A
:10013000FECFC0E1D0E0CE012AD2682FCE01409799
:1001400031D22196C032D105B1F78FEF86DFFFE3C0
:100150002DE083E0F15020408040E1F700C0000036
:1001600080E07BDFC0E0D0E000E010E0C8010FD20B
:100170009E012827822F82958227082E86958695B4
:100180008025082E869580258770022E232F869540
:1001900007948795302D28270694879530252827A2
:1001A000E9010F5F1F4F0031110501F7CD2B11F051
:1001B00083E07EDFC19AE9EFF0E03197F1F700C00C
:1001C000000057D1E0E6F0E081E8828F138E8AE1EB
:1001D00090E067DFFFE926E881E0F15020408040B1
:1001E000E1F700C00000BDD1CCD18333924010F0C4
:1001F00082E05EDFE0E6F0E080E8808B81E0818BEA
:1002000080E190E04EDF81E090E0C1D1811188E093
:10021000C0E6D0E08C8B1D8A1E8A80E090E0B7D1CA
:10022000082F82E090E0B3D1182F85E090E0AFD1A5
:10023000902F9295990F990F907C8F70982B812F0A
:1002400083708295807F892B8F8B188E84E2898FB3
:1002500088E190E026DF8FE493EC0197F1F700C08E
:10026000000083E090E09BD18C0190689A8B0B8B0F
:1002700082E190E016DF82E6888B81E0898B80E165
:1002800090E00FDF1A8B0B8B82E190E00ADFCCE36A
:10029000D5E00F2EFBE3EF2EF02DA12CB12C0F2E6D
:1002A000F2E6CF2EF02DFF24F3940F2EF3E6DF2E8F
:1002B000F02D67D18636944010F082E0F9DEB399D4
:1002C00050C080E0CADE83ED90E30197F1F700C0F3
:1002D0000000B39B8CC061C0E9EFF0E03197F1F70B
:1002E00000C00000019709F46BC0B39BF5CF55C067
:1002F000C8014DD1BE016827862F82958627082E1A
:10030000869586958025082E869580258770062EF1
:10031000672F869507948795702D68270694879593
:1003200070256827EB010F5F1F4F0E30110501F795
:100330008EE090E045D1FFE926E881E0F1502040D1
:100340008040E1F700C0000080E087DEB39BFECF75
:10035000E3EDF0E33197F1F700C00000CBE3D5E027
:1003600005C0DD23B9F0C150CE3118F0EE2DEC1BE5
:1003700001C0EC2FF0E0E25EFF4F84916EDE87E873
:1003800093E10197F1F700C00000C11192CFD15065
:10039000CCE38FCF81E67EDE8CCFC0E6D0E0C88A8A
:1003A000F98A80E190E07DDEE9EFF0E03197F1F746
:1003B00000C00000D88AF98A80E190E072DEC8CFE0
:1003C0008FEF4BDE44E060E670E080E17FD0E0E656
:1003D000F0E0628170E0762F66278381682B83E0EE
:1003E00090E0EED0CA2DDB2D00E010E081CF89EF48
:1003F00090E00197F1F700C000008FEC97E075CF17
:1004000028E030E090E8482F492319F0B898C09AC6
:1004100002C0C098B89A00C000C00000BA98C29A42
:1004200000C000C00000C298BA9A969521503109C8
:1004300051F7B898C09A00C000C00000BA98C29A9C
:1004400000C000C0000086B3C298BA9A00C000C0C5
:1004500000008170089500C000C00000C098B89AE4
:1004600000C000C00000C298BA9A880F862BC8DF6F
:100470000895B898C09ABA98C29A08950F931F9396
:10048000CF93DF93EB01142F60E0E5DF0FEF010F57
:10049000112351F010E00F5F1F4F0C0F1D1F8991AA
:1004A000AFDFC017D107D9F7C098B89ABA98C29AE7
:1004B00000C000C00000B898C09A00C000C0000092
:1004C00080E0DF91CF911F910F9108951F93CF93FB
:1004D000DF93EB01142F61E0BEDF4FEF410F1123DB
:1004E00079F150E04F5F5F4F4C0F5D1F24C0BA9809
:1004F000C29A00C000C00000B099322BC298BA9ACC
:1005000000C000C000002695019789F7C098B89AEE
:1005100000C000C00000BA98C29A00C000C000002D
:10052000C298BA9AB898C09A00C000C00000399327
:100530004C175D0729F088E090E020E830E0D7CF45
:10054000C098B89ABA98C29A00C000C00000B89883
:10055000C09A00C000C0000080E0DF91CF911F91E1
:1005600008958CE087B983E886B989EF90E0019718
:10057000F1F700C00000369A3699FECF08953798FB
:100580000895369A3699FECF84B195B10895E199D0
:10059000FECF1FBA8EBBE09A99278DB30895A8E1CC
:1005A00042E013C0262FE199FECF1CBA1FBA8EBBC2
:1005B0002DBB0FB6F894E29AE19A0FBE019608950A
:1005C000F1DF272FF0CFA82F862FE82FE199FECF5C
:1005D0001FBA05C0EEBBE09AE3950DB20D924150F3
:0805E000C8F70895F894FFCF5D
:00000001FF
