:100000001DC02AC07EC028C027C026C025C024C06D
:1000100023C022C021C020C073C01EC01DC000016B
:1000200001020305080B0F14191E242B3138404818
:1000300050586169727B848D969EA7AF11241FBEB4
:10004000CFEDCDBF20E0A0E6B0E001C01D92A13809
:10005000B207E1F757D0CBC2D3CF882324F0982F33
:1000600092959F7001C098E09BBD882339F09EEF68
:100070009FBD9AE69CBD94E090BF02C01CBC10BE20
:1000800080938000089585B7877E806185BF85B79E
:10009000806285BF88950895A89581BD7894F3DF27
:1000A000F89411BC089542EF480F60E770E080E1DA
:1000B000E5D108950F931F93CF93DF93182FC19825
:1000C000D8E7082F13C0C02F8FEFC7DF87E893E171
:1000D0000197F1F700C0000080E0BFDF85E4DCDFBE
:1000E000C15091F786E4D8DFD15019F01111EBCF50
:1000F000F9CF4AD2C8DFDF91CF911F910F910895B8
:1001000018951895B99ABC9A8FEF8DBD80E68CBD75
:100110002DD23CD28333924010F082E0CBDFC39AE1
:1001200089EF90E00197F1F700C0000096B38BB71C
:1001300080628BBFAB9A93FD1BC0B39BFECFC0E127
:10014000D0E0CE0129D2682FCE01409730D221963F
:10015000C032D105B1F78FEF80DF9FE3EDE0F3E030
:100160009150E040F040E1F700C0000080E075DF12
:10017000C0E0D0E000E010E0C8010ED2C8278C2F0C
:1001800082958C27082E869586958025082E869543
:10019000802587700C2ECD2F869507948795D02DBE
:1001A000C82706948795D025C8270F5F1F4F0031B9
:1001B000110511F7CD2B11F083E07CDFC19A89EF97
:1001C00090E00197F1F700C0000053D1C0E6D0E005
:1001D00081E88A8F1B8E8AE190E065DF9FE9E6E87F
:1001E000F1E09150E040F040E1F700C00000188AD3
:1001F00081E0898B80E190E056DF81E090E0CCD116
:10020000811188E0C0E6D0E08C8B1D8A1E8A80E0D8
:1002100090E0C2D1082F82E090E0BED1182F85E097
:1002200090E0BAD18F700295000F000F007C982FDC
:10023000902B812F83708295807F892B8F8B188ED6
:1002400084E2898F88E190E02EDF8FE493EC0197C0
:10025000F1F700C0000083E090E0A6D18C01906827
:100260009A8B0B8B82E190E01EDF82E6888B81E027
:10027000898B80E190E017DF1A8B0B8B82E190E095
:1002800012DFDCE3CCE30F2EFFECDF2EF02D0F2E80
:10029000F7E0EF2EF02D912CA12C0F2EF2E6BF2EC1
:1002A000F02DFF24F3940F2EF3E6CF2EF02D6ED118
:1002B0008636944010F082E0FDDEB3994FC080E0B6
:1002C000CCDE83ED90E30197F1F700C00000B39B13
:1002D0008EC063C0E9EFF0E03197F1F700C0000095
:1002E000019709F46DC0B39BF5CF57C0CE0154D12F
:1002F0000827802F82958027082E86958695802551
:10030000082E869580258770002E012F86950794EC
:100310008795102D08270694879510250827219684
:10032000CE30D10519F7B8018EE090E04ED1FFE94B
:1003300026E881E0F15020408040E1F700C0000055
:1003400080E08BDEB39BFECFE3EDF0E33197F1F776
:1003500000C000008CE3CCE3DBE308C0CC23D1F089
:10036000EFEFED0FEE3128F08D2FDE2FECE3E81BE1
:1003700001C0DE2FF0E0E25EFF4F84916EDE87E881
:1003800093E10197F1F700C00000D11190CFC15067
:10039000DCE38DCF81E680DE8ACFC0E6D0E0B88A8C
:1003A000F98A80E190E07FDEE9EFF0E03197F1F744
:1003B00000C00000C88AF98A80E190E074DEC4CFF2
:1003C0008FEF4BDE44E060E670E080E17FD0E0E656
:1003D000F0E0628170E0762F66278381682B83E0EE
:1003E00090E0F3D0092D1A2DC92DD12F7FCF89EFA1
:1003F00090E00197F1F700C000008D2D9E2D73CF86
:1004000028E030E090E8492F482319F0B898C09AC6
:1004100002C0C098B89A00C000C00000BA98C29A42
:1004200000C000C00000C298BA9A969521503109C8
:1004300051F7B898C09A00C000C00000BA98C29A9C
:1004400000C000C0000086B3C298BA9A00C000C0C5
:1004500000008170089500C000C00000C098B89AE4
:1004600000C000C00000C298BA9A880F862BC8DF6F
:100470000895B898C09ABA98C29A08950F931F9396
:10048000CF93DF93EB01142F60E0E5DF0FEF010F57
:10049000112351F010E00F5F1F4F0C0F1D1F8991AA
:1004A000AFDFC017D107D9F7C098B89ABA98C29AE7
:1004B00000C000C00000B898C09A00C000C0000092
:1004C00080E0DF91CF911F910F9108951F93CF93FB
:1004D000DF93EB01142F61E0BEDF8FEF810F11235B
:1004E000A1F1482F50E04F5F5F4F4C0F5D1FF8E0C8
:1004F000E0E070E860E024C0BA98C29A00C000C092
:100500000000B099322BC298BA9A00C000C0000017
:100510002695019789F7C098B89A00C000C00000DE
:10052000BA98C29A00C000C00000C298BA9AB8989F
:10053000C09A00C000C000003993C417D50729F045
:100540008F2F9E2F272F362FD7CFC098B89ABA98C3
:10055000C29A00C000C00000B898C09A00C000C095
:10056000000080E0DF91CF911F9108958CE087B962
:1005700083E886B989EF90E00197F1F700C00000A9
:10058000369A3699FECF089537980895369A369957
:10059000FECF84B195B10895E199FECF1FBA8EBB0D
:1005A000E09A99278DB30895A8E142E013C0262F61
:1005B000E199FECF1CBA1FBA8EBB2DBB0FB6F894C3
:1005C000E29AE19A0FBE01960895F1DF272FF0CF4E
:1005D000A82F862FE82FE199FECF1FBA05C0EEBBEA
:1005E000E09AE3950DB20D924150C8F70895F89442
:0205F000FFCF3B
:00000001FF
