:100000001DC02AC092C028C027C026C025C024C059
:1000100023C022C021C020C087C01EC01DC0000157
:1000200001020305080B0F14191E242B3138404818
:1000300050586169727B848D969EA7AF11241FBEB4
:10004000CFEDCDBF20E0A0E6B0E001C01D92A13809
:10005000B207E1F76DD2EFC2D3CF8627682F629542
:100060006827062E669566956025062E669560259E
:100070006770082E892F669507946795902D8627BF
:100080000694679590258627089587FD04C0982FCC
:1000900092959F7001C098E09BBD882339F09EEF38
:1000A0009FBD9AE69CBD94E090BF02C01CBC10BEF0
:1000B00080938000089585B7877E806185BF85B76E
:1000C000806285BF88950895A89581BD7894F3DFF7
:1000D000F89411BC089542EF480F60E770E080E1AA
:1000E0007BC180E0D2DF8FE080BDC9E7C15099F0CD
:1000F000B39B11C0C49A80E4E7DFC49883E294EF15
:100100000197F1F700C00000C49A80E4DDDFC498D5
:1001100086E4DADFEBCF83EC99E00197F1F700C0DA
:10012000000083E4D1DFF7CF18951895C19A89EFC5
:1001300090E00197F1F700C000004CD181E8809376
:100140007A0010927B008AE190E0C5DF9FE9E6E843
:10015000F1E09150E040F040E1F700C00000D2D162
:10016000E1D18831924018F0C198DAD171C0109273
:10017000700081E08093710080E190E0ACDF81E06D
:1001800090E02ED2882311F088E001C080E08093B7
:100190007400109275001092760080E090E020D2FA
:1001A000D82F82E090E01CD2C82F85E090E018D2D2
:1001B000982F9F70D295DD0FDD0FD07C9D2B8C2F5B
:1001C00083708295807F982B9093770010927800AF
:1001D00084E28093790088E190E07DDF8FE996E802
:1001E000E1E081509040E040E1F700C0000083E092
:1001F00090E0FED1EC01906890937200C093730080
:1002000082E190E068DF82E68093700081E0809375
:10021000710080E190E05FDFD0937200C0937300C3
:1002200082E190E058DFF12CDCE315E092E6D92E74
:10023000EE24E39423E6C22E75D18237924048F033
:10024000F394F9E0FF1530F4C1986AD180E01DDF26
:1002500048DFF12CB3994FC080E017DF83ED90E3C6
:100260000197F1F700C0000080ED97E0B39963C0FB
:10027000E9EFF0E03197F1F700C000000197009737
:10028000A9F78FEF02DF44E060E670E080E1DAD0AA
:100290006091620070E0762F662780916300682B82
:1002A00083E090E0B6D100E010E0C0E0D0E0CE0105
:1002B00097D1682FC801D1DE8C012196CE30D105AF
:1002C000B1F7BC018EE090E0A4D1FFE926E881E01F
:1002D000F15020408040E1F700C0000080E0D5DE12
:1002E000B39BFECFE3EDF0E33197F1F700C00000E0
:1002F000DCE315E002C01123D1F0CFEFCD0FCE31FA
:1003000018F0ECE3ED1B01C0EC2FF0E0E25EFF4FD4
:100310008491BBDE87E893E10197F1F700C000000C
:10032000CC2311F0DC2F88CF1150CCE3FBCF86E437
:10033000CBDECD2FF7CFD0927000E092710080E13C
:1003400090E0C9DEE9EFF0E03197F1F700C000007E
:10035000C0927000E092710080E190E0BCDEC2CFFC
:10036000C098B89A0895B898C09A0895C298BA9A51
:100370000895BA98C29A08950F931F93CF93DF936D
:10038000082FC8E0D0E010E8812F802311F0EBDFC8
:1003900001C0E6DF00C000C00000EBDF00C000C00D
:1003A0000000E4DF16952197209771F7DCDF00C08D
:1003B00000C00000DEDF00C000C00000C6B3D6DF12
:1003C00000C000C000008C2F8170DF91CF911F9181
:1003D0000F910895C8DFCDCFEF92FF921F93CF9377
:1003E000DF93CDB7DD27C350CDBF142F00C000C0B1
:1003F00000006A837B838983B3DF00C000C00000F4
:10040000B5DF8981880FB8DF6A81E62E7B81F72E00
:10041000160F1E1529F0F70181917F01ADDFF9CF8D
:100420009FDFA7DF00C000C000009DDF00C000C04C
:10043000000080E0CD5FCDBFDF91CF911F91FF9095
:10044000EF900895AF92BF92DF92EF92FF920F93D9
:100450001F93CF93DF93CDB7DD27C350CDBFE42EDD
:1004600000C000C000006A837B83898379DF00C0FD
:1004700000C000007BDF8981880F81607DDF6A8199
:10048000A62E7B81B72EE60EEA1431F108E010E0CB
:1004900080E8D82EF12C6DDF00C000C00000B099BC
:1004A000FD2864DF00C000C00000D694015011098F
:1004B0000115110581F754DF00C000C0000059DFAD
:1004C00000C000C0000052DF4EDF00C000C00000CE
:1004D000F501F1925F01D8CF43DF4BDF00C000C0D0
:1004E000000041DF00C000C0000080E0CD5FCDBF54
:1004F000DF91CF911F910F91FF90EF90DF90BF9010
:10050000AF9008958CE087B983E886B989EF90E0D1
:100510000197F1F700C00000369A3699FECF089592
:1005200037980895369A3699FECF84B195B10895DB
:10053000B99ABC9A83ED90E30197F1F700C00000EF
:100540008FEF8DBD80E68CBDC39A89EF90E0019757
:10055000F1F700C0000096B38BB780628BBFAB9AF7
:1005600093FD1BC0B39BFECFC0E1D0E0CE0138D0DD
:10057000682FCE0140973FD02196C032D105B1F708
:100580008FEF83DD9FE32DE083E09150204080409A
:10059000E1F700C0000080E078DD00E010E0C0E09E
:1005A000D0E0CE011DD0682FC80157DD8C01219607
:1005B000C031D105B1F7009791F0D9E7D15071F072
:1005C000C3E08FEF62DD80E47FDD80E05EDD85E407
:1005D0007BDDC150B1F787E477DDF0CF6CDDA6DDC0
:1005E000E199FECF1FBA8EBBE09A99278DB308958B
:1005F000A8E142E013C0262FE199FECF1CBA1FBA32
:100600008EBB2DBB0FB6F894E29AE19A0FBE01960D
:100610000895F1DF272FF0CFA82F862FE82FE1993B
:10062000FECF1FBA05C0EEBBE09AE3950DB20D9266
:0A0630004150C8F70895F894FFCF79
:00000001FF
